:020000040800F2
:10000000E07D0120AD02000877060008F905000830
:100010007506000843050008AD2200080000000036
:10002000000000000000000000000000ED010008DA
:100030004505000800000000490200087908000892
:10004000C7020008C7020008C7020008C70200086C
:10005000C7020008C7020008C7020008C70200085C
:10006000C7020008C7020008C7020008C70200084C
:10007000C7020008C7020008C7020008C70200083C
:10008000C7020008C7020008C7020008C70200082C
:10009000C7020008C7020008C7020008C70200081C
:1000A000C7020008C7020008C7020008C70200080C
:1000B000C7020008C7020008C7020008C7020008FC
:1000C000C7020008C7020008C7020008C7020008EC
:1000D000C7020008D120000811210008C70200084B
:1000E000C7020008C7020008C7020008C7020008CC
:1000F000C7020008C7020008C7020008C7020008BC
:10010000C7020008C7020008C7020008C7020008AB
:10011000C7020008C7020008C7020008C70200089B
:10012000C7020008C7020008C7020008C70200088B
:10013000C7020008C7020008C7020008C70200087B
:10014000C7020008C7020008C7020008C70200086B
:10015000C7020008C7020008C702000851210008B2
:10016000C7020008C7020008C7020008C70200084B
:10017000C7020008C702000800000000C70200080C
:10018000C7020008C7020008C7020008C70200082B
:10019000C7020008C702000800000000C7020008EC
:1001A000C7020008C70200080000000000000000AD
:1001B000C70200080000000000000000C70200089D
:1001C000C7020008C7020008C7020008C7020008EB
:1001D000C7020008C7020008DFF80CD000F03EF9A3
:1001E00000480047752A0008E07D01202C4B196863
:1001F0000868B0E8F04F80F30988BFF36F8F4FF0C5
:10020000000080F311887047000000000848006873
:10021000006880F308884FF0000080F3148862B60D
:1002200061B6BFF34F8FBFF36F8F00DF00BF00BF1A
:1002300008ED00E0DFF80C00016841F47001016096
:10024000704700BF88ED00E0EFF30980BFF36F8FC8
:10025000134B1A681EF0100F08BF20ED108A20E91A
:10026000F04F106009B44FF0BF0080F31188BFF366
:100270004F8FBFF36F8F03F003FB4FF0000080F34D
:10028000118809BC19680868B0E8F04F1EF0100F1B
:1002900008BFB0EC108A80F30988BFF36F8F7047F6
:1002A000B4000020EFF30580704700000648804747
:1002B00006480047FEE7FEE7FEE7FEE7FEE7FEE74B
:1002C000FEE7FEE7FEE7FEE7A5080008D901000803
:1002D00040EA01039B0703D009E008C9121F08C0C8
:1002E000042AFAD203E011F8013B00F8013B521E48
:1002F000F9D27047D2B201E000F8012B491EFBD2BF
:1003000070470022F6E710B513460A460446194620
:10031000FFF7F0FF204610BD421E12F8013F002BF0
:10032000FBD111F8013B02F8013B002BF9D17047DA
:1003300030B505462A460B4612F8010B13F8014B5F
:1003400008B1A042F8D01CB1002802D06D1CF1E722
:10035000284630BD421C10F8011B0029FBD1801A31
:10036000704710B5044600E0401C0378002BFBD119
:1003700000E0401C521E04D311F8013B0370002B17
:10038000F7D100210170204610BD000070B50F4D5F
:1003900000B92868002412E00A4602E09E4203D019
:1003A000521C1378002BF9D1DAB2224305D02BB1BD
:1003B00024B1002100F8011B04E00446401C06782B
:1003C000002EE9D12860204670BD0000FC0000200E
:1003D00070B5064601F07CFF046805460A2200213C
:1003E000304600F002F82C6070BD2DE9F0479146D0
:1003F0000F4680460446002614F8015B2DB100F03C
:100400003FF80068405DC007F6D12B2D02D02D2D9E
:1004100018D0641E4A463946204600F035F827B108
:100420003968A14201D1C7F8008071054FF002047C
:100430000BD54042002803DD01F04AFF0460A0070D
:10044000BDE8F08746F48066E4E70028F8DA01F0BA
:100450003FFF04606FF00040F2E70000064C074DDC
:1004600006E0E06840F0010394E807009847103484
:10047000AC42F6D3FFF7B4FE684300088843000897
:1004800000487047644300082DE9F05F8246007819
:10049000002715468B460AF10104B946302801D0E1
:1004A0009DB113E014F8010B0127782803D05828D8
:1004B00001D045B10AE00DB1102D07D1002710255C
:1004C00014F8010B02E0082500E00A250026B046DA
:1004D0000EE005FB080005FB06F1012701EB1046C5
:1004E0001FFA80F8B6F5803F00D3B94614F8010B27
:1004F000294600F018F80028EBDABBF1000F05D010
:100500000FB1641E00E05446CBF80040B9F1000F73
:1005100006D001F0DDFE02210160C81EBDE8F09F9B
:1005200048EA0640FAE73A2800D2303820F02002A4
:10053000412A01D3A2F13700884201D34FF0FF30A6
:100540007047FEE7704701B50098411E0091FBD24D
:1005500008BDF0B5002201274FF0030C0B6807FA25
:1005600002F52B40AB422CD1066853000CFA03F481
:10057000A64306600E79D0F800E09E4046EA0E06DB
:1005800006600E79012E01D0022E12D18668A64394
:1005900086604E79D0F808E09E4046EA0E068660F6
:1005A0004668AE43466045688E799640B6B235439C
:1005B0004560C568A543C560CC799C40C3681C43B1
:1005C000C460521C102AC9D3F0BD4B07DB0E9A4001
:1005D000C90810B500EB8100016A0F249C40A143BB
:1005E0000162016A1143016210BD018370474269D3
:1005F0004A40426170470000164C01E00028FDD1DE
:100600008021204601F0D4FD0028F9D02321204686
:1006100001F048FE8021204601F0CAFD0028F9D0F3
:100620002321204601F03EFE8021204601F0C0FD3E
:100630000028F9D02321204601F034FE80212046F5
:1006400001F0B6FD0028F9D02321204601F02AFE52
:100650000120D3E7004400400A2291FBF2F330333B
:10066000037091FBF2F302FB131130314170002152
:1006700081707047FEE7704730B50F23C27801786C
:100680000125FAB1144A126801F1E02102F4E06296
:10069000C2F5E062C2F30722C2F10404D3404278FB
:1006A000A24084781C401443220181F80024007881
:1006B00000F01F018D404009800000F1E020C0F8EB
:1006C000005130BD01F01F0085404809800000F155
:1006D000E020C0F8805130BD0CED00E00249084335
:1006E00002490860704700000000FA050CED00E0C8
:1006F000044A0029116801D0014300E081431160E0
:100700007047000030380240044A0029116801D0C7
:10071000014300E08143116070470000403802400F
:10072000044A0029116801D0014300E081431160AF
:10073000704700004438024070B5204B1968204CC7
:1007400011F00C0104D06610042903D0082903D04D
:1007500004601BE0066019E0184A121F1168C1F31B
:100760008055116801F03F0115B1B6FBF1F101E0D0
:10077000B4FBF1F114681268C4F388146143C2F346
:100780000142521C5200B1FBF2F1016019680F22C4
:1007900002EA11110B4A545C0168E14041601C6897
:1007A000072505EA9424145D21FA04F484601B688B
:1007B00005EA5333D25CD140C16070BD08380240B5
:1007C0000024F400A40000200CB500222649009269
:1007D0000192086840F4803008604FF4A043086834
:1007E00000F4003001900098401C0090019810B96E
:1007F00000989842F3D10868800332D50120019017
:1008000019484030026842F080520260174802687E
:1008100042F44042026014480830026802600268F4
:100820000260026842F480520260031F104A1A609C
:100830000A6842F080720A600A689201FCD50D4A8B
:1008400040F202711160016821F00301016001684A
:1008500041F0020101600168C1F381010229FAD16E
:100860000CBD01920CBD0000003802400070004039
:1008700008544107003C024010B5BF2080F31188A6
:10088000BFF34F8FBFF36F8F03F066FB18B10449BE
:100890004FF080500860002080F3118810BD0000E8
:1008A00004ED00E0124810B5016841F470010160E8
:1008B0001048016841F0010101600E4A0021083230
:1008C000116002680C4B1A400260031D0B4A1A604B
:1008D000026822F48022026006480C300160FFF7B3
:1008E00073FF03494FF000608039086010BD0000BD
:1008F00088ED00E000380240FFFFF6FE10300024D3
:1009000008B5054613200D4C8DF800004FF0FF365A
:100910003146206803F01EF90028F9D0012128464D
:1009200001F044FE0028F3D00121284601F0B2FD79
:1009300001226946062002F081FCE9E71C00002044
:1009400008B505461320104C8DF800004FF0FF3617
:100950003146206803F0FEF80028F9D0022128462D
:1009600001F024FE0028F3D00221284601F092FD78
:1009700001226946104602F061FC01226946062008
:1009800002F05CFCE4E700004000002008B50546EA
:1009900013200D4C8DF800004FF0FF3631462068D3
:1009A00003F0D8F80028F9D00621284601F0FEFD12
:1009B0000028F3D00621284601F06CFD012269468B
:1009C000104602F03BFCE9E7680000200C4E0546AB
:1009D0004FF0FF373946306803F0BCF80028F9D0F3
:1009E0006C6809E004F1080101200EC902F082FCE4
:1009F000642002F089FE2468002CEBD0F2E70000AE
:100A000020000020054608B516A0174E00684FF0DC
:100A1000FF3700903946306803F09CF80028F9D081
:100A200028680028F6D0062210A1022002F006FC59
:100A30006C680EE004F1080102200EC902F05AFCB5
:100A400003226946022002F0F9FB0A2002F05CFE54
:100A50002468002CEED11C2206A1022002F0EEFB3D
:100A6000D8E700000A0D0000440000201B5B333271
:100A70006D0000001B5B306D456E64206F66207951
:100A80006F75722064617461626173650A0A0D009A
:100A90000D4E05464FF0FF373946306803F05AF8DF
:100AA0000028F9D028680028F6D06C6809E004F125
:100AB000080106200EC902F01DFC642002F024FE8D
:100AC0002468002CE8D0F2E76C0000201FB5DFF8A6
:100AD000ECA0029014208DF80C0000254FF0FF3B95
:100AE0005C465946DAF8000003F034F80028F7D0E5
:100AF0003348234608226946006803F0D4F80728E3
:100B000013D0032D07DD2F4800231A46194600682D
:100B100002F062FFE4E7642002F0F6FD012203A97F
:100B2000104602F08BFB6D1CDAE79DF800009DF883
:100B30000120303800EB80006FF02F0101EB400006
:100B400002EB00099DF802009DF80320303800EB0D
:100B5000800001EB400016189DF804009DF8052068
:100B6000303800EB800001EB4000171800254FF0F3
:100B700001084946761C029801F03CFD04000CD0A7
:100B8000012FADD0E068B042AADD24220EA10220E0
:100B900002F054FBC4E9036809E0012FA0D04346EA
:100BA00032464946029801F0B7FE002898D04346E5
:100BB00032464946062002F09DFB91E718000020CE
:100BC000740000204C0000205265636569766564FE
:100BD000206120626574746572206D65747269634A
:100BE000206F6E207573617274310A0D0000000071
:100BF0001CB5DFF8C88082464FF0FF394C464946A5
:100C0000D8F8000002F0A6FF0028F7D02C482346B1
:100C100008226946006803F046F89DF800009DF838
:100C20000120303800EB80006FF02F0101EB400015
:100C300016189DF802009DF80320303800EB800064
:100C400001EB400015189DF804009DF80520303890
:100C500000EB800001EB400017183146504601F0D0
:100C6000C9FC040014D0E068A842C7DD242215A105
:100C7000022002F0E3FAC4E903573B462A46314614
:100C8000012002F037FB3B462A463146062011E0A0
:100C90003B462A463146504601F03EFE0028ADD084
:100CA0003B462A463146062002F024FB3B462A46B4
:100CB0003146012002F01EFBA0E700003C000020AE
:100CC0008400002052656365697665642061206256
:100CD0006574746572206D6574726963206F6E202F
:100CE0007573617274320A0D000000001FB5DFF8E1
:100CF000E4A0029014208DF80C0000254FF0FF3B7B
:100D00005C465946DAF8000002F024FF0028F7D0CC
:100D10003148234608226946006802F0C4FF0728CC
:100D200010D0012D07DD2D4800231A461946006812
:100D300002F052FEE4E7012203A9062002F07EFA47
:100D40006D1CDDE79DF800009DF80120303800EBB8
:100D500080006FF02F0101EB400002EB00099DF8CD
:100D600002009DF80320303800EB800001EB4000CA
:100D700016189DF804009DF80520303800EB80001F
:100D800001EB400002EB0008002506274946761CCF
:100D9000029801F02FFC04000AD0E068B042AFDDF9
:100DA00024220FA1022002F049FAC4E903670AE0F5
:100DB000B8F1060FA4D03B4632464946029801F0EE
:100DC000ABFD00289CD03B4632464946012002F04C
:100DD00091FA95E764000020940000204C00002068
:100DE0005265636569766564206120626574746527
:100DF00072206D6574726963206F6E207573617205
:100E000074360A0D00000000CCB0DFF820A1834644
:100E10004FF0FF396E4600274C464946DAF800008D
:100E200002F098FE0028F7D0414823464FF4807224
:100E30006946006802F037FF040006EB04004770C3
:100E4000EAD03CA16846FFF7A1FAFFF7C1FA0546D0
:100E50006846FFF77FFA3E21315437A10020FFF7A3
:100E600095FAFFF7B5FA80466846FFF773FA3A211C
:100E700031544146584601F0BDFB58B10069012884
:100E80002ED0022830D00628C6D12246694602F06C
:100E9000D5F9C1E78DF8007128A140A8FFF73CFA09
:100EA00029464BA8FFF7D8FB014640A8FFF734FAC4
:100EB00023A140A8FFF730FA41464AA8FFF7CCFB30
:100EC000014640A8FFF728FA20A140A8FFF724FA1E
:100ED000002DA1D040A8FFF73DFA024640A901E04D
:100EE000224669460120D2E7FB2C10DB1DA1684693
:100EF000FFF712FAA41CFD2C09DB1F221AA1022005
:100F000002F09CF9192220A1022002F097F9082290
:100F100024A1022002F092F922466946022002F042
:100F20008DF9052221A10220B1E700001400002064
:100F3000780000203E0000003A00000030303E0003
:100F40003A204572726F723A2000000020486F7399
:100F50007420556E726561636861626C65210A0D6B
:100F6000000000000A0D0000285468652073656EBB
:100F700074206D6573736167652077617320746F8A
:100F8000206C6F6E672C20006974206D617920627F
:100F900065206D697373696E672074657874290ABA
:100FA0000D0000001B5B33333B316D001B5B306D6C
:100FB00000000000D4B082461C224AA14AA8FFF7D4
:100FC00087F9DFF83C814FF0FF394C464946D8F8A5
:100FD000000002F0BFFD0028F7D04A4823464FF436
:100FE00080726946006802F05EFE0400EDD046A102
:100FF0006846FFF7CBF9FFF7EBF906466846FFF7BF
:10100000A9F93E210DF800106F4640A10020FFF71E
:10101000BDF9FFF7DDF905466846FFF79BF93A2170
:1010200039542946504601F0E5FA58B100690128C3
:1010300032D0022834D00628C7D12246694602F0B1
:10104000FDF8C2E700208DF8000131A140A8FFF7AC
:1010500063F9314652A8FFF7FFFA014640A8FFF7AF
:101060005BF92CA140A8FFF757F9294651A8FFF7D3
:10107000F3FA014640A8FFF74FF929A140A8FFF76E
:101080004BF940A8FFF766F9024640A9022002F09A
:10109000D5F81C224AA922E0224669460120CEE763
:1010A000FB2C10DB24A16846FFF736F9A41CFB2CAF
:1010B00009DB1F2221A1022002F0C0F8192227A17A
:1010C000022002F0BBF808222BA1022002F0B6F8A1
:1010D00022466946022002F0B1F8052228A102202A
:1010E000ADE700004D65737361676520636F756CD4
:1010F00064206E6F742062652073656E740A0D0043
:1011000038000020880000203E0000003A00000067
:1011100030303E003A204572726F723A2000000073
:1011200020486F737420556E726561636861626CEC
:1011300065210A0D000000000A0D000028546865B2
:101140002073656E74206D657373616765207761C8
:101150007320746F206C6F6E672C20006974206D93
:101160006179206265206D697373696E67207465AB
:101170007874290A0D0000001B5B33333B316D008E
:101180001B5B306D00000000DFF82881CEB0824686
:101190004FF0FF394C464946D8F8000002F0DAFC1F
:1011A0000028F7D0444823464FF48072694600680F
:1011B00002F079FD044601464CA8FFF74DFA002CD9
:1011C000E8D03EA16846FFF7E1F8FFF701F90546D0
:1011D0006846FFF7BFF83E210DF800106F4638A1B2
:1011E0000020FFF7D3F8FFF7F3F806466846FFF74D
:1011F000B1F83A2139543146504601F0FBF950B16B
:10120000006901282ED0022832D00628C2D12246F9
:101210006946062029E000208DF8000129A140A898
:10122000FFF77AF829464BA8FFF716FA014640A8BF
:10123000FFF772F824A140A8FFF76EF831464AA8DC
:10124000FFF70AFA014640A8FFF766F821A140A877
:10125000FFF762F8002D9DD040A8FFF77BF802460B
:1012600040A9D6E722466946012001F0E7FF91E751
:10127000FB2C10DB1DA16846FFF74EF8A41CFB2CCD
:1012800009DB1F221AA1022001F0D8FF192220A198
:10129000022001F0D3FF082224A1022001F0CEFF9A
:1012A00022466946022001F0C9FF052221A1022041
:1012B000DBE7000060000020980000203E000000F6
:1012C0003A00000030303E003A204572726F723AA8
:1012D0002000000020486F737420556E72656163B2
:1012E0006861626C65210A0D000000000A0D0000B3
:1012F000285468652073656E74206D65737361672B
:10130000652077617320746F206C6F6E672C2000EE
:101310006974206D6179206265206D697373696EEF
:10132000672074657874290A0D0000001B5B333355
:101330003B316D001B5B306D0000000008B50620DE
:10134000074C8DF80000C51F2946206802F002FCFA
:101350000028F9D001226946104601F06FFFF3E73B
:101360001000002008B50620074C8DF80000C51FAE
:101370002946206802F0EEFB0028F9D001226946D8
:10138000062001F05BFFF3E75C0000201CB58046FF
:10139000052003248DF8040014208DF800004FF47C
:1013A000FA76184F184D00E0F4B1012201A9104659
:1013B00001F044FF3146386802F0CCFB90B10121C6
:1013C000404601F0F3F820B10121404601F0C8F891
:1013D00020B901226946104601F030FF304602F084
:1013E00093F90CE0641EDFE70121404601F0DEF8CE
:1013F00028B100231A461946286802F0EDFA0324A2
:10140000D2E70000240000201C0000201CB580460C
:10141000052003248DF8040014208DF800004FF4FB
:10142000FA76184F184D00E0F4B1012201A9062008
:1014300001F004FF3146386802F08CFB90B10621C0
:10144000404601F0B3F820B10121404601F088F890
:1014500020B901226946062001F0F0FE304602F074
:1014600053F90CE0641EDFE70621404601F09EF8C8
:1014700028B100231A461946286802F0ADFA032461
:10148000D2E700007000002068000020C0B00024F7
:101490002C4F6E46651E2946386802F05BFB00281B
:1014A000F9D0294800F0FAFE10F0FF00305500D1C5
:1014B0002C46305D05280FD0152812D006281DD0E7
:1014C0000D2824D0132832D0142835D0FA2C01DB73
:1014D000601CE0D1641CDEE700231A4619461B4855
:1014E00010E01B48621C2C462B466946006802F03F
:1014F00026FC00231A461946164814E00023164815
:101500001A461946006802F067FA2C46E2E71348CB
:10151000621C2C462B466946006802F010FC002332
:101520000F481A461946006802F056FAD2E700231F
:101530001A4619460B48E5E700231A4619460A4899
:10154000E0E700000400002000100140100000202F
:1015500074000020180000202400002078000020E3
:10156000140000201C00002020000020DFF880A0D4
:10157000204EDFF88490C0B04FF0FF3B5C465946E8
:10158000DAF8000002F0E6FA0028F7D01B482346FC
:101590004FF480726946006802F085FB05004FF049
:1015A0000003D9F800001A4619461DD002F014FABB
:1015B0000024134FE84614E08021304600F0F8FD87
:1015C0000028F9D08021384600F0F2FD0028F9D03B
:1015D00018F80410304600F065FE052002F094F87B
:1015E000641CAC42CADAE7E702F0F6F9C6E700008D
:1015F0000800002000100140800000207C00002036
:1016000000440040ADF51C7D24229890CAA180A81A
:10161000FEF75EFE2022D1A189A8FEF759FE142212
:10162000D6A191A8FEF754FED9A00025D0E900105C
:10163000CDE9961014208DF864022C460B22D6A119
:10164000022001F0FBFD00F057FE2622D5A102206A
:1016500001F0F4FD212280A9022001F0EFFDDFF866
:101660006C93DFF86CB3AA466E1EDA483146006808
:1016700002F070FA0028F8D0DFF85C83404600F0F2
:101680000DFE0DF804006F463146D9F8000002F057
:1016900061FA48B38021404600F08AFD0028F9D065
:1016A0008021404600F084FD0028F9D0395D404695
:1016B00000F0F8FD385D0D280FD18021404600F084
:1016C00077FD0028F9D08021404600F071FD002808
:1016D000F9D00A21404600F0E5FD00231A461946DC
:1016E000D9F8000002F078F9385D082802D00D28FA
:1016F0001FD099E307F804A047468021384600F040
:1017000057FD0028F9D02021384600F0CBFD80217C
:10171000384600F04DFD0028F9D00821384600F089
:10172000C1FD002C02DDA4F102047DE3E1D13446C9
:101730007FE321469BA8FEF78FFFF72C09DB1F22D2
:10174000A6A1022001F07AFD1922ACA1022001F02D
:1017500075FD0021989800F003FF00284DD0057A10
:10176000ADA16846FEF7E4FD002876D02722ACA1A3
:10177000022001F063FD1D22B3A1022001F05EFDF5
:101780002422B9A1022001F059FD1322BFA1022099
:1017900001F054FD2222C2A1022001F04FFD1C22C3
:1017A000C8A1022001F04AFD1D22CDA1022001F0B6
:1017B00045FD1D22D2A1022001F040FD2422D8A126
:1017C000022001F03BFD2222DEA1022001F036FDC5
:1017D0002722E5A1022001F031FD2522ECA1022003
:1017E00001F02CFD1D22F4A1022001F027FD28228A
:1017F000F9A1022001F022FD99E79DF8001030398F
:1018000009295AD89DF801000D2808D0A0F130020E
:10181000092A23D89DF802200D2A02D009E0CDB272
:101820000CE001EB8101D02202EB41010844C5B27A
:1018300004E0212280A9022001F000FD681E632837
:101840003BD22946989800F0D5FE48B1212280A9C4
:10185000022001F0F3FC002569E731E00025E8E70C
:101860000A24B5FBF4F030308DF85002B5FBF4F0EB
:1018700004FB105030308DF8510291A8FEF76AFD3C
:10188000024691A9022001F0D9FCB5FBF4F03030FA
:101890008DF85802B5FBF4F004FB105030308DF891
:1018A0005902D7480023072296A9006802F047FA98
:1018B00000231A461946D3480AE2212280A998E754
:1018C000D1A16846FEF734FD98B11A22D0A10220BA
:1018D00001F0B4FCD54F00244FF49678202138460F
:1018E000FEF785FE404601F00FFF641C0C2CF5DB73
:1018F0001DE7CFA16846FEF71BFD28B12122CFA12D
:10190000022001F09BFCFAE1D5A16846FEF710FD2C
:1019100080B12322D4A1022001F090FC1722DBA188
:10192000022001F08BFC1B22DEA1022001F086FCCC
:101930002822C5E1D0E100000A0D506C6561736595
:1019400020747970652061206E65772049442028D5
:10195000312E2E3939293A2000000000496E707569
:1019600074206E6F7420636F7272656374202873C5
:101970006565202F68656C70290A0D00596F7572B6
:101980002049442069733A2058580A0D000000008D
:101990003030303030320F001B5B324A1B5B313B42
:1019A000314800000A0D736565202F68656C702052
:1019B000666F72206675727468657220696E666FF4
:1019C000726D6174696F6E0A0D0000009000002056
:1019D0004000002028000020004400402854686592
:1019E0002073656E74206D65737361676520776120
:1019F0007320746F206C6F6E672C20006974206DEB
:101A00006179206265206D697373696E6720746502
:101A10007874290A0D0000002F68656C70000000C2
:101A20000A0D546F2073656E642061206D657373B9
:101A300061676520796F75206E65656420746F201D
:101A40006669727374200000646566696E6520794A
:101A50006F7572206F776E2049442028312E2E3901
:101A600039290A0D000000005468656E20796F75F1
:101A70002063616E2073656E642061206D657373F1
:101A800061676520776974683A0A0D0058583A20F2
:101A9000796F75725F6D6573736167650A0D00001C
:101AA00028585820697320746865204944206F665F
:101AB00020746865207265636569766572290A0A13
:101AC0000D0000006F7468657220706F7373696237
:101AD0006C6520636F6D6D616E64733A0A0D000072
:101AE0002F626C696E6B202020202D3E20626C6975
:101AF0006E6B20746865204C45440A0D00000000A0
:101B00002F72656C6561736520202D3E20746F20F7
:101B100072656C656173652049440A0D0000000020
:101B20002F73686F7744422020202D3E20746F2051
:101B300073686F7720746865206461746162617393
:101B4000650A0D002F7265736574444220092D3EAD
:101B500020726573657420746865206461746162C5
:101B60006173650A0D0000002F68656C6C6F2020A2
:101B700020202D3E2061736B206E65696768626F5F
:101B80007220666F72207570646174650A0D0000C2
:101B90002F636C656172202020202D3E20636C65D0
:101BA0006172207465726D696E616C207363726519
:101BB000656E0A0D000000002F637265646974731E
:101BC00020202D3E2073686F772063726561746FEB
:101BD00072730A0D000000002F68656C70202020D1
:101BE00020202D3E2073686F772074686973206D04
:101BF00065737361676520616761696E0A0A0D002C
:101C0000840000203C0000202F626C696E6B000095
:101C10000A1B5B33336D426C696E6B207468652000
:101C20004C45440A0D1B5B306D0000000000024073
:101C30002F72656C65617365000000000A78785842
:101C400020596F7572204944207761732072656C4A
:101C5000656173656421205878780A0D00000000E2
:101C60002F73686F774442000A546865736520617A
:101C7000726520796F75206461746162617365209B
:101C8000656E74726965733A0A0D000058585959A7
:101C90005A5A202D3E2058582E2E20504320494479
:101CA0000A0D0000202020202020202D3E20595900
:101CB0002E2E20686F7020636F756E740A0D000001
:101CC0005DA1022001F0BAFA002365481A461946C0
:101CD000006801F081FE2AE562A16846FEF728FB54
:101CE000A8B1634800231A461946006801F074FE43
:101CF000604800231A461946006801F06DFE002373
:101D00001A461946DBF8000001F066FED5E55AA137
:101D10006846FEF70DFB80B11F2259A1022001F099
:101D20008DFA012299A9104601F088FA642001F089
:101D3000EBFC012299A906205CE559A16846FEF753
:101D4000F7FA18B10B22AFF2B03152E556A168464E
:101D5000FEF7EEFA10B100F0CFFAE8E455A16846BC
:101D6000FEF714FB9DF800003038092829D89DF8AB
:101D70000100A0F13001092922D89DF8020000BB22
:101D80006846FEF7E7FA3A2139548DF800A1294652
:101D90009AA8FEF761FC014640A8FEF7BDFA46A1ED
:101DA00040A8FEF7B9FA2246641E694640A8FEF72D
:101DB000D8FA3AA140A8FEF7AFFA3346A21D29E0AF
:101DC00048B1344689A8FEF7C5FA421C89A9022009
:101DD00001F034FA2DE06846FEF7BCFA3A21395496
:101DE0008DF800A129469AA8FEF736FC014640A8C6
:101DF000FEF792FA31A140A8FEF78EFA2246641E41
:101E0000694640A8FEF7ADFA24A140A8FEF784FA7F
:101E10003346E21D2A4840A9006801F090FF0023E4
:101E20001A461946274853E7F82C02DB601C7FF45A
:101E30001CAC641C19E40000202020202020202D50
:101E40003E205A5A2E2E20636F6E6E656374656451
:101E5000206F6E20696E746572666163650A0D009D
:101E6000440000202F726573657444420000000036
:101E70001C000020680000202F68656C6C6F00005B
:101E800053656E64696E6720726571756573742041
:101E9000746F206E65696768626F72730A0D000067
:101EA0002F636C65617200002F63726564697473DF
:101EB000000000003A0000003E0000003E3000003C
:101EC0008800002038000020DFF874901D4EDFF8F5
:101ED0007880C0B04FF0FF3A54465146D9F8000020
:101EE00001F038FE0028F7D0184823464FF48072DE
:101EF0006946006801F0D7FE05004FF00003D8F8EE
:101F000000001A46194618D001F066FD00246F46FD
:101F100010E08021304600F04BF90028F9D08021F4
:101F2000304600F045F90028F9D0395D304600F020
:101F3000B9F9641CAC42CFDAEBE701F04DFDCBE719
:101F40002C00002000440040900000208C00002065
:101F5000C0B000242D4F6E46651E2946386801F03A
:101F6000F9FD0028F9D02A4800F098F910F0FF0098
:101F7000305500D12C4627480121006801F0EAFDC8
:101F800000B12C46305D05280FD0062812D00D2850
:101F900019D0152823D013282DD0142830D0FA2C8E
:101FA00001DB601CD9D1641CD7E700231A4619460F
:101FB000194803E0002319481A461946006801F041
:101FC0000BFD2C46EFE71648621C002369460068AB
:101FD00001F0B5FE00231A4619461248EEE71248F2
:101FE000621C00236946006801F0A9FE00231A461E
:101FF00019460E48E2E700231A4619460C48DDE769
:1020000000231A4619460B48D8E70000500000206C
:10201000001401404C0000205C00002070000020F3
:102020009800002060000020940000206400002040
:10203000680000206C000020DFF880A0204EDFF850
:102040008490C0B04FF0FF3B5C465946DAF8000080
:1020500001F080FD0028F7D01B4823464FF4807222
:102060006946006801F01FFE05004FF00003D9F833
:1020700000001A4619461DD001F0AEFC0024134F93
:10208000E84614E08021304600F092F80028F9D0AC
:102090008021384600F08CF80028F9D018F8041098
:1020A000304600F0FFF8052001F02EFB641CAC4226
:1020B000CADAE7E701F090FCC6E700005400002010
:1020C00000140140A00000209C00002000440040BB
:1020D00008B50020009040F225510A4800F058F859
:1020E00009486946006801F003FD0098002807D000
:1020F00006494FF080500860BFF34F8FBFF36F8FDA
:1021000008BD0000001001400400002004ED00E0C4
:1021100008B50020009040F225510A4800F038F838
:1021200009486946006801F0E3FC0098002807D0E0
:1021300006494FF080500860BFF34F8FBFF36F8F99
:1021400008BD0000004400402800002004ED00E02D
:1021500008B50020009040F225510A4800F018F818
:1021600009486946006801F0C3FC0098002807D0C0
:1021700006494FF080500860BFF34F8FBFF36F8F59
:1021800008BD0000001401405000002004ED00E0F4
:102190000A0A01219140C9430180704700298189C1
:1021A00002D041F4005101E021F4005181817047D7
:1021B0000246002012880A4200D00120704710B564
:1021C000C1F3421301F01F040121A140012B07D0EC
:1021D000022B07D01430002A026805D00A4304E01D
:1021E0000C30F8E71030F6E78A43026010BD0000BB
:1021F0007FB50446008A0D46C98820F4405001434B
:102200002182A08941F20C618843A9882A8911435F
:102210006A8902431143A181A08A20F44071A889F0
:102220000843A0826846FEF787FA1A48844202D023
:102230001948844201D1039800E00298A189090459
:1022400000EBC00101EB0010296801D5490000E056
:102250008900B0FBF1F06422B0FBF2F109010B0937
:102260006FF018056B4300EB8300A3891D044FF04A
:10227000320306D503EBC000B0FBF2F000F007001C
:1022800005E003EB0010B0FBF2F000F00F00084394
:1022900020817FBD00100140001401408088C0F300
:1022A00008007047C1F3080181807047FEE7090705
:1022B000090E002804DB00F1E02080F800147047CC
:1022C00000F00F0000F1E02080F8141D70470000BE
:1022D000004870470001002002E008C8121F08C132
:1022E000002AFAD170477047002001E001C1121F97
:1022F000002AFBD17047000010B51C221BA1022050
:1023000000F09CFF1A2220A1022000F097FF152266
:1023100024A1022000F092FF1A2228A1022000F03E
:102320008DFF15222CA1022000F088FF1A2230A177
:10233000022000F083FF152234A1022000F07EFF6E
:102340001B2238A1022000F079FF15223CA10220B7
:1023500000F074FF1C2240A1022000F06FFF1D223C
:10236000BDE8104043A1022000F068BF1B5B33367C
:102370006D0A0D205F5F20205F5F5F20205F5F2080
:1023800020205F5F20202000205F5F202020202071
:102390002020202020202020202020202020200A53
:1023A0000D0000007C5F5F2920207C20202F202052
:1023B0005C20285F20202020000000007C5F5F2937
:1023C00020205F20205F20202E20205F207C2020E6
:1023D0007C5F200A0D0000007C205C2020207C20F7
:1023E000205C5F5F2F205F5F29202020000000001D
:1023F0007C202020207C2020285F29207C20282D64
:10240000207C28207C5F200A0D0000002020202056
:1024100020202020202020202020202020202020BC
:10242000000000002020202020202020202020202C
:102430002F202020202020202020200A0A0D00000C
:1024400062793A20207E204172736576656E204362
:10245000616E0A0D0000000020202020207E204117
:10246000626F2047616C696C61204D6F68616D65BA
:10247000640A0D0020202020207E204F7374726F8C
:1024800077736B69204A6F686E0A0A0D1B5B306DAB
:10249000000000002DE9F04188B00F4605461C22DF
:1024A00027A16846FDF714FFDFF8B0804FF0FF3139
:1024B000D8F8000001F04EFB00283DD000266C68E3
:1024C00024E02069B84220D12868401E286068684E
:1024D000A042A86809D1A04202D16E60AE6011E0AE
:1024E00020686860206846600CE0A04204D1606803
:1024F000A8606068066005E0D4E900010860D4E9DE
:1025000000014160204601F0F1F82468002CD8D188
:1025100000231A461946D8F8000001F05DFA0A2097
:1025200097FBF0F100FB117030308DF818001C2281
:102530006946022000F082FE08B0BDE8F08100008C
:102540004C6F737420636F6E6E656374696F6E2079
:102550006F66207573617274780A0D0000000020A8
:1025600070B5114E0D4604464FF0FF31306801F052
:10257000F1FA00280BD064680BE0E068A84207D1AC
:1025800000231A461946306801F026FA204670BD2D
:102590002468002CF1D100231A461946306801F056
:1025A0001BFA002070BD00000000002070B5104E26
:1025B0000D4604464FF0FF31306801F0CBFAA8B168
:1025C00064680BE02069A84207D100231A46194627
:1025D000306801F001FA204670BD2468002CF1D16A
:1025E00000231A461946306801F0F6F9002070BD44
:1025F0000000002070B5104E0D4604464FF0FF312C
:10260000306801F0A7FAA8B164680BE0A068A8429E
:1026100007D100231A461946306801F0DDF920463B
:1026200070BD2468002CF1D100231A461946306889
:1026300001F0D2F9002070BD0000002010B5042088
:1026400000F0D8FC002101604160816010BD0000F5
:102650002DE9F04F89B0A948FEF76EF8A7484FF46E
:102660007A7100244068661EB0FBF1F1491EB1F199
:10267000807F09D24FF0E02569610F213046FFF7D6
:1026800016FEAC610720286100213046FFF70FFEDF
:102690004FF4A060FEF722F83220FDF754FF01212D
:1026A0000420FEF725F801258DF804508DF806402A
:1026B0000F20934E00908DF807508DF805400B21A8
:1026C0003046FDF792FF69463046FDF742FF012193
:1026D0000846FEF70DF88DF804508DF806404FF0CF
:1026E000200A8DF80740CDF800A08DF80540694616
:1026F0008448FDF72EFF01210846FDF7F9FF022768
:102700008DF804708DF806404FF4C06000908DF88D
:1027100007508DF8054069467A48FDF71AFF0722F1
:1027200009217848FDF751FF07220A217548FDF776
:102730004CFF01211020FDF7F3FF0C26DFF8CC81C0
:10274000DFF8C491ADF81260ADF80E40CDF80890F6
:10275000ADF81440ADF81040ADF80C4002A9404669
:10276000FFF746FDB8F80C0040F020014046A8F8FD
:102770000C1040F2255B01225946FFF720FD252071
:102780008DF818008DF819408DF81A408DF81B50FF
:1027900006A8FDF771FF01214046FFF7FFFC01216C
:1027A0000846FDF7A5FF8DF804708DF806408DF8FA
:1027B000075000968DF8054069465248FDF7C9FE5E
:1027C000072202214F48FDF700FF072203214D4851
:1027D000FDF7FBFE01214804FDF796FFDFF830818D
:1027E000ADF81260ADF80E40CDF80890ADF8144089
:1027F000ADF81040ADF80C4002A94046FFF7F8FCD8
:1028000043480C30018841F02001018001225946E3
:102810004046FFF7D4FC26208DF818008DF81940AB
:102820008DF81A408DF81B5006A8FDF725FF0121F1
:102830004046FFF7B3FC01210846FDF759FF8DF82C
:1028400004708DF80640700200908DF807408DF8F6
:10285000054069462B48FDF77CFE08220B212948DC
:10286000FDF7B3FE08220C212648FDF7AEFE01213C
:102870002020FDF755FFADF81260264EADF80E4052
:10288000CDF80890ADF81440ADF81040ADF80C400C
:1028900002A93046FFF7ACFC1E490C31088840F015
:1028A00020000880012259463046FFF788FC472067
:1028B0008DF818008DF819408DF81A408DF81B50CE
:1028C00006A8FDF7D9FE01213046FFF767FC01217C
:1028D0000846FDF70DFF03208DF821008DF82050EC
:1028E0008DF82240CDF81CA08DF8235007A905488B
:1028F000FDF72FFE09B0BDE8F08F000004010020B5
:102900000008024000000240801A0600001001404A
:1029100000440040001401402DE9F04190B01746FA
:102920000D460446984624223FA107A8FDF7D0FC97
:102930001C2246A16846FDF7CBFC4B4E4FF0FF3101
:10294000306801F007F970B3142000F053FB70B346
:10295000002140F8081B80E8A00122680A27521CC9
:10296000226062680838EAB3A1684160A168002368
:102970001A460860A0601946306801F02DF895FBF2
:10298000F7F030308DF8070095FBF7F007FB10509B
:1029900030308DF808006846FDF7DCFC02466946D9
:1029A000022000F04BFC012010B0BDE8F081FFE7F1
:1029B00007A8FDF7CFFC024607A9022000F03EFC65
:1029C00000231A461946306801F006F8274800230C
:1029D0001A461946006800F0FFFF25494FF0805065
:1029E000086000E005E0BFF34F8FBFF36F8F00205A
:1029F000DAE7416060600023A0601A46194630683B
:102A000000F0EAFF95FBF7F030308DF8070095FBFA
:102A1000F7F007FB105030308DF8080002220AA1B1
:102A2000104600F00BFCB6E74E6F206D656D6F72BF
:102A30007920666F72206E657720646174616261CF
:102A400073652D656E7472790A0D00001B5B33355A
:102A50006D5043787820636F6E6E65637465642192
:102A60000A0D1B5B306D0000000000204C000020B0
:102A700004ED00E0FFF7ECFDFFF7E0FD044600F099
:102A800003FB00F007F8204600F062FC00F0C6FEF1
:102A9000FEE7000070B54FF485750122002128463D
:102AA00001F0ECF8194C012200216067284601F082
:102AB000E5F8A06701220021284601F0DFF8E06771
:102AC00001220021284601F0D9F8803401226060FB
:102AD0000021284601F0D2F8A060012200212846FA
:102AE00001F0CCF8E06001220021284601F0C6F890
:102AF000606101220021284601F0C0F8A061012296
:102B00000021284601F0BAF8E06170BD0000002005
:102B10002DE9F041184E0F460446F5683068001D57
:102B200000F086FD38B9306890F82C1001208840FC
:102B3000316981433161601C07D137B13168BDE82B
:102B4000F0410E48091D00F0ACBD30682C44AC4289
:102B50004460316805D2B06BBDE8F041091D00F05A
:102B600088BD706B091D00F084FDB06A844200D2FC
:102B7000B462BDE8F0810000B4000020C80100206C
:102B80002DE9F041054600F099FD2E4EB068401C3D
:102B9000B06030682C4F10B1706940B32DE03560E3
:102BA000B068012829D1002404EB840007EB8000E1
:102BB00000F051FD641C052CF6D32348283800F0A2
:102BC0004AFD2148143800F046FD1F48643000F0EB
:102BD00042FD1D48783000F03EFD1B488C3000F06F
:102BE0003AFD1948283870631430B06305E0306846
:102BF000E96AC06A884200D83560706A0121401CC9
:102C00007062E86A326981401143316100EB8000F3
:102C100007EB8000291D00F044FD00F05DFD7069A8
:102C200000280CD03068E96AC06A884207D2074998
:102C30004FF080500860BFF34F8FBFF36F8FBDE838
:102C4000F0810000B40000203C01002004ED00E011
:102C5000D0E9012100680A44101A814200D8401AC4
:102C600070472DE9F041856B174604460026026C3B
:102C700082B1C7B1E068FDF72BFBE168206C091A4F
:102C8000E1602268914202D2A168081AE060022F36
:102C900016D017E02068A8B9A06801F015FA06461A
:102CA0000020A0600EE06068FDF712FB216C6068F8
:102CB00008446060A168884204D32068606001E035
:102CC00005B16D1E6D1CA5633046BDE8F08110B5E1
:102CD0000446006B00F00AFD2046BDE8104000F0FD
:102CE00005BD0000134E144DA6F178074FF0805833
:102CF000DFF8489011E000F0E1FCF068C468201DA6
:102D000000F096FCA868401EA8606868401E6860D5
:102D100000F0E2FC2046FFF7DAFF68680028EAD1FD
:102D200038680128F9D9C9F80080BFF34F8FBFF385
:102D30006F8FF2E7B4010020B400002004ED00E042
:102D40002DE9F0410D461E46174604462021DDF8C8
:102D50001880FDF7D6FAA561C4E90276B8F1000F34
:102D600003D0207F40F001002077BDE8F0812DE9FD
:102D7000F0479A46DDE9096481466FF00303206B52
:102D800003EB82021044089D20F00708002023185E
:102D90000A5C83F834200A5C12B1401C1028F6D378
:102DA000002784F84370052D00D30425E562C4E9AB
:102DB0001157201D00F05AFC04F1180000F056FCD9
:102DC0002461C5F105006462A061E76484F8507075
:102DD00052464946404600F041F92060002E00D09E
:102DE0003460BDE8F08710B5044600F067FCA06BC6
:102DF00020B1002400F070FC204610BD0124F9E74A
:102E000073B500260098846CA06BE26B90420CD2E4
:102E100094F945500A4669462046FFF722FF0646C8
:102E2000681C04D06D1C84F8455030467CBD606A37
:102E30000028FAD004F1240001F0C8F90028F4D0E9
:102E40000126F2E72DE9F04188460546934201D27A
:102E50001C4600E01446CCB12F68A868C61BA642E9
:102E600000D32646A8693246C1194046FDF730FA1C
:102E7000B44205D9A21B08EB0600A969FDF728FAA0
:102E8000A9683819814200D8401A28602046BDE858
:102E9000F0812DE9F8431E46089D144689460746F1
:102EA0006DB1D7F800802A4669463846FFF7CAFF59
:102EB000009A761BA24202D9C7F80080002233464E
:102EC00049463846FFF7BEFFBDE8F8830648416B28
:102ED000096829B1416BC968C9684968816270474E
:102EE0004FF0FF31FAE70000B4000020BF2080F36C
:102EF0001188BFF34F8FBFF36F8FFEE72DE9F041CD
:102F0000044600F0DBFB94F9455004F1240610E080
:102F1000A06C20B100212046FFF772FF04E0606A38
:102F200048B1304601F052F908B100F00DFC6D1EB9
:102F30006DB2002DECDC4FF0FF3684F8456000F0F8
:102F4000CBFB00F0BBFB94F9445004F1100709E0FF
:102F5000206948B1384601F039F908B100F0F4FBB6
:102F60006D1E6DB2002DF3DC84F84460BDE8F041C5
:102F700000F0B2BB2DE9F04147680446154688468B
:102F80008068C61BAE4200D31646A069324638445C
:102F9000FDF79EF9B54205D9AA1B08EB0601A06909
:102FA000FDF796F9A1687819814200D8401A60604F
:102FB0002846BDE8F0817FB5044608980D46B3B1B8
:102FC000217FC9070DD0834211D3042202A92046D4
:102FD000FFF7D0FF29462046029AFFF7CBFF04B047
:102FE00070BD0298984200D203460293F2E7002097
:102FF000F5E7000070B504460025400704D004F052
:103000000700C0F10800044400F032FC0A4A50688E
:1030100018B90A4820F0070050601068084B0119E1
:10302000994204D2814202D9536811601D1801F0FF
:10303000FFF8284670BD0000F4000020E4010020E5
:10304000F87701000449086818B10868826C521CBE
:103050008264086870470000B400002010B5031FA8
:103060004FF080741C601B1F21F001011960191FB3
:10307000044B0B6014390A60091F6FF002024438D8
:103080000A6010BDED2E000810B5012000F03AFCDA
:10309000694C00231A461946206000F09DFC03226B
:1030A0000021012000F040FC60600322002101208B
:1030B00000F03AFCA06003220021012000F034FC63
:1030C000E06003220021012000F02EFC2061032299
:1030D0000021012000F028FC606203220021012071
:1030E00000F022FC606103220021012000F01CFCA2
:1030F000A06103220021012000F016FCE061032200
:103100000021012000F010FC206203220021012098
:1031100000F00AFCA06203220021012000F004FC60
:10312000E06203220021012000F0FEFB2063032265
:103130000021012000F0F8FB606303220021012040
:1031400000F0F2FBA06403220021012000F0ECFB60
:10315000A06303220021012000F0E6FBE0630322CC
:103160000021012000F0E0FB206403220021012067
:1031700000F0DAFB606403220021012000F0D4FBA0
:10318000E06403220021012000F0CEFB2065032231
:103190000021012000F0C8FB60650322002101200E
:1031A00000F0C2FBA06503220021012000F0BCFB5F
:1031B000E06503220021012000F0B6FB2067032216
:1031C0000021012000F0B0FB206603220021012035
:1031D00000F0AAFB606603220021012000F0A4FB9E
:1031E000A06603220021012000F09EFBE06603227E
:1031F0000021012000F098FB803400231A46194674
:10320000206000F0E9FB03220021012000F08CFB8C
:1032100000231A461946206100F0DEFB032200213C
:10322000012000F081FB00232062BDE810401A4617
:10323000194600F0D1BB00000000002070B5154613
:103240000E464FF0FF3401281AD002282BD0062852
:103250003CD11F482146006800F07CFC002835D096
:103260001C4823462A463146006800F068FD0023CA
:1032700019481A4619460068BDE8704000F0ACBB1A
:1032800016482146006800F065FC00281ED014484E
:1032900023462A463146006800F051FD00231A46B5
:1032A00019461048E7E710482146006800F052FC34
:1032B00000280BD00D4823462A463146006800F00E
:1032C0003EFD00231A4619460948D4E770BD0000A8
:1032D000A00000209C00002054000020800000205E
:1032E0007C00002008000020900000208C000020BE
:1032F0002C0000207CB50A2491FBF4F530358DF8C4
:10330000005091FBF4F504FB151130318DF80110DC
:1033100092FBF4F130318DF8021092FBF4F104FBD2
:10332000112130318DF8031093FBF4F130318DF819
:10333000041093FBF4F104FB113130318DF80510CA
:1033400015218DF8061007226946FFF777FF7CBD2F
:103350007CB500240425CDE90054064603468022AE
:1033600058A15C4800F074FDCDE90054334680223A
:1033700059A15D4800F06CFDCDE900543346802230
:103380005AA15E4800F064FD0325CDE900540023F6
:1033900080225BA15E4800F05BFDCDE90054002374
:1033A00080225CA15F4800F053FDCDE9005400236A
:1033B00080225DA1604800F04BFD0225CDE900545C
:1033C000334680225DA1604800F042FDCDE9005403
:1033D000334680225DA1604800F03AFDCDE90054FB
:1033E000334680225DA1604800F032FD0125CDE921
:1033F0000054334680225DA1604800F029FDCDE9EC
:1034000000543346802259A15D4800F021FDCDE9EA
:103410000054002380225BA15E4800F019FDCDE935
:103420000054002380225CA15F4800F011FD0525B7
:10343000CDE90054334680225CA1604800F008FDCD
:10344000CDE90054334680225DA1614800F000FDC3
:10345000CDE900543346802254A15E4800F0F8FCC8
:10346000CDE90054334680225BA15F4800F0F0FCB8
:10347000CDE90054334680225CA1604800F0E8FCAE
:10348000CDE900543346802253A15D4800F0E0FCB2
:10349000CDE90054334680225AA15E4800F0D8FCA2
:1034A000CDE90054334680225BA15F4800F0D0FC98
:1034B000CDE900543346802252A15C4800F0C8FC9C
:1034C0007CBD00005461736B5F7573617274315F12
:1034D000525800008D1400085461736B5F7573615E
:1034E0007274325F52580000051600085461736B05
:1034F0005F7573617274365F52580000511F000887
:103500005461736B5F7573617274315F545800005E
:103510006D1500085461736B5F7573617274325F6F
:1035200054580000C91E00085461736B5F757361C5
:103530007274365F54580000392000085461736B70
:103540005F6D736731000000090E00085461736BF2
:103550005F6D736732000000B50F00085461736B34
:103560005F6D736736000000891100085461736B4A
:103570005F73656E645F48656C6C6F008D13000847
:103580000D1400085461736B5F726563315F4865A9
:103590006C6C6F003D1300085461736B5F72656360
:1035A000365F48656C6C6F00651300085461736B7F
:1035B0005F64625F7570646174653100CD0A0008F4
:1035C0005461736B5F64625F64656C657465310040
:1035D00001090008CD0900085461736B5F64625FE4
:1035E0007570646174653200F10B00085461736B8F
:1035F0005F64625F64656C65746532004109000850
:10360000050A00085461736B5F64625F75706461E2
:1036100074653600ED0C00085461736B5F64625F83
:1036200064656C65746536008D090008910A0008B0
:10363000D0E9013201699A60D0E901235A604A68F1
:10364000824201D182684A60002202610868401EFD
:1036500008600868704700F108014FF0FF32C0E9C8
:103660000112C16001610021016070470021016108
:10367000704730B50C68621C02D000F1080202E00D
:10368000026904E01A4653681D68A542FAD95368D6
:103690004B6099608A60516008610168491C016053
:1036A00030BD42684A6093688B609368596091604E
:1036B00008610168491C016070470000BF2080F369
:1036C0001188BFF34F8FBFF36F8F02480168491C09
:1036D00001607047F000002003490868401E086040
:1036E00001D180F311887047F0000020704700007E
:1036F0004FF0E02000210161816102494161072111
:10370000016170471F48010010B5020009D000F0A8
:10371000AFF800211046FFF7FBF900F089FD002803
:1037200007D104494FF080500860BFF34F8FBFF3BB
:103730006F8F10BD04ED00E002490A6A0260C9689B
:1037400041607047B400002001490120C861704702
:10375000B4000020024610B506480C460168104629
:103760001831FFF786FF2046BDE810400121FFF722
:10377000CFB90000B400002070B50A46040037D06D
:10378000616C914200D21146E06A884230D0A26C4E
:10379000012A2DD1E162A269002A02DBC1F10501F3
:1037A000A161144D00EB8000616905EB800081424E
:1037B0001ED1201DFFF73CFF0F49012250B9E06ADE
:1037C00000EB800355F8233023B90B6902FA00F0AF
:1037D00083430B61E06A0B6982401A430A6100EB84
:1037E000800005EB8000211DBDE87040FFF759BF48
:1037F00070BD00003C010020B400002010B504465C
:10380000FFF75CFF0448016A2160C0686060BDE8A2
:103810001040FFF761BF0000B40000201CB5104845
:103820000024CDE90040234680220EA10F4800F07D
:103830000FFB012812D1BF2080F31188BFF34F8FF7
:10384000BFF36F8F06484FF0FF312C3881620121A2
:103850004161C460BDE81C4000F034B81CBD0000EC
:10386000E000002049444C4500000000E52C000821
:103870000248016B491C016370470000B40000203E
:103880000E4A106B10B10120D06170470020D0614A
:1038900010690B49B0FA80F0C0F11F0000EB800006
:1038A00001EB800000F108034168496841609942DA
:1038B00001D149684160C86810607047B4000020B9
:1038C0003C0100200C4810B5016841F47F01016003
:1038D000016841F07F410160FFF70AFF07490020BE
:1038E0000860FCF7A7FC0648016841F04041016010
:1038F000FCF78CFC002010BD20ED00E0F000002063
:1039000034EF00E010B502460021012000F00CF871
:10391000041E07D00021816001600B460A46C16089
:1039200000F05AF8204610BD70B50D00064614D0C0
:1039300006FB05F04C30FFF75DFB04000CD004F1F2
:103940004C0065B12060C4E90F652046012100F0FC
:1039500009F800212046A16470BD0020EAE7246038
:10396000F1E7000070B50D460446FFF7A7FED4E965
:103970000F12206801FB0200A0600020A0632068F5
:1039800060600146E06B401E00FB0210E0604FF0FB
:10399000FF3084F8440084F8450004F110004DB174
:1039A000FFF759FE04F12400FFF755FEFFF794FEE0
:1039B000012070BD21690029F8D000F007FC002823
:1039C000F4D004494FF080500860BFF34F8FBFF32D
:1039D0006F8FEBE704ED00E02DE9FF4F002683B089
:1039E00099468B460446B2464FF08057DFF8FC807C
:1039F000FFF764FEA06BE16B884206D3B9F1020FBA
:103A000003D0059830B346B32BE0A56B4A46594620
:103A10002046FFF726F9A16C49B14846B9F1020FDB
:103A200000D18DB901462046FFF7EAF905E0616A49
:103A300019B104F1240000F0C9FB28B1C8F80070E6
:103A4000BFF34F8FBFF36F8FFFF746FE012007B024
:103A5000BDE8F08FFFF740FE21E06846FFF76CFEFF
:103A60000126FFF739FEFFF703FFFFF727FE94F962
:103A70004400401C01D184F844A094F94500401C46
:103A800001D184F845A0FFF727FE05A9684600F09C
:103A9000B7F930B12046FFF731FA00F0C9FB00203A
:103AA000D5E7FFF70BFEA06BE16B884201D1012542
:103AB00000E00025FFF710FE95B104F11000059914
:103AC000FFF748FE2046FFF719FA00F0B1FB002887
:103AD0008ED1C8F80070BFF34F8FBFF36F8F87E7A9
:103AE0002046FFF70BFA00F0A3FB81E704ED00E0AE
:103AF00070B50C46BF21EFF3118581F31188BFF338
:103B00004F8FBFF36F8F826BC16B91421DD990F9BC
:103B10004510521C82634A1C04D0491C80F8451091
:103B2000012013E0816C012619B10021FFF768F92B
:103B300005E0416A0029F3D0243000F047FB00285B
:103B4000EED0002CECD02660EAE7002085F3118847
:103B500070BD00002DE9F343002583B00446A9465B
:103B60002E464FF08057DFF81081FFF7A7FDA06BBE
:103B7000C8B1401EA063206810B9FFF763FAA060C7
:103B8000206950B104F1100000F020FB28B1C8F802
:103B90000070BFF34F8FBFF36F8FFFF79DFD0120C4
:103BA00005B0BDE8F083049808B11DB106E0FFF749
:103BB00093FD5EE06846FFF7BFFD0125FFF78CFD32
:103BC000FFF756FEFFF77AFD94F94400401C01D13F
:103BD00084F8446094F94500401C01D184F84560A4
:103BE000FFF77AFD04A9684600F00AF9002820468C
:103BF00014D0FFF783F900F01BFB2046FFF7F3F822
:103C00000028B2D0B9F1000F33D0FFF757FD606A3A
:103C100050B3206B0068C0F1050126E0FFF7E3F820
:103C2000E0B1206838B9FFF749FDA06800F084FAD8
:103C30008146FFF751FD04F124000499FFF78AFD46
:103C40002046FFF75BF900F0F3FA00288DD1C8F8A1
:103C50000070BFF34F8FBFF36F8F86E72046FFF7EB
:103C60004DF900F0E5FA80E70021A068FFF784FD38
:103C70009DE7002094E7000004ED00E0F8B517464A
:103C80000E0000D10126451C2130FFF7B3F90400D6
:103C900007D033462A4604F1200120460097FFF75B
:103CA0004FF82046F8BD2DE9F84F0446007F002765
:103CB000994692468B46C00701D0042500E00025B6
:103CC0004FF00008B9F1000F19D0FFF7F7FC2046BC
:103CD000FEF7BEFF0646A84205D8002000F096F980
:103CE00000F034F92061FFF7F7FCAE420BD8002258
:103CF0004B461146104600F0A1F9C4F8108020464A
:103D0000FEF7A6FF0646AE4216D93346524659463E
:103D100020460095FFF7BDF807000DD0FFF7A8FD7E
:103D2000606938B1606900231A46194600F0BCF892
:103D3000C4F8148000F07CFA3846BDE8F88F2DE90D
:103D4000FF430446007F83B0904689461546C0076E
:103D500000D0151D0698002718B301A8FFF74EFDE7
:103D6000FFF7ACFC204600F040F80646A84215D20A
:103D7000002000F04BF900F0E9F86061FFF7ACFCBF
:103D8000002211461046069B00F058F9676106A90B
:103D900001A800F035F80028E2D001E0FFF79CFC14
:103DA0001EB9204600F021F80646334642464946F1
:103DB00020460095FFF7FFF8050012D02046FEF7D9
:103DC00047FFE16888420CD3FFF752FD206930B10C
:103DD000206900231A46194600F066F8276100F0B2
:103DE00027FA07B02846BDE8F0830268816840687A
:103DF0000A44101A401E814200D8401A7047000041
:103E00002DE9F0410C460546FFF758FC0F4EF268CD
:103E10006B682068D11A471C07D02F68366AB742F2
:103E200009D0934207D8012400E00024FFF754FC96
:103E30002046BDE8F081884205D9401A2060284616
:103E4000FFF77AFCF1E700202060ECE7B4000020E7
:103E50002DE9FF5F8346DDE90E87994616468A46BF
:103E60009000FFF7C7F805001AD05420FFF7C2F8FA
:103E7000040012D025630021CDE90241CDE900877D
:103E80004B46324651465846FEF771FF2046FEF734
:103E900077FE012004B0BDE8F09F2846FFF726FC1E
:103EA0004FF0FF30F6E700002DE9F0411F46904645
:103EB0000D4604460126FFF701FC0FB1E06C3860A7
:103EC00094F85000022184F85010B8F1050F0ED27A
:103ED000DFE808F00D03060C0A00E16C294301E05D
:103EE000E16C491CE16402E0022803D0E56401288A
:103EF00002D020E000261EE0201DFFF799FB104DA8
:103F0000E06A01212A698140114329610D4900EBD2
:103F1000800001EB8000211DFFF7C3FBE06A2968E8
:103F2000C96A884207D908494FF080500860BFF33A
:103F30004F8FBFF36F8FFFF7CFFB3046BDE8F081A7
:103F4000B40000203C01002004ED00E001480068BE
:103F500070470000B40000202DE9F041294F0026F1
:103F6000386B40B1B869401CB861F86900B10126EE
:103F70003046BDE8F081FD686D1CFD6008D1786BAE
:103F8000B96B7963B863386A401C3862FEF79EFFEC
:103F9000B86ADFF87480854209D3786B006880B115
:103FA000786BC068C468606885420DD2B8623868B2
:103FB000C06A00EB800158F821000128D5D90126FC
:103FC000D3E74FF0FF30F1E7201DFFF731FBA06A88
:103FD00018B104F11800FFF72BFBE06A01213A69E0
:103FE00081401143396100EB800108EB8100211D04
:103FF000FFF757FBE06A3968C96A8842CDD30126CA
:10400000CBE70000B40000203C01002010B558B1FF
:104010000446FFF753FB94F85000022807D0002411
:10402000FFF75AFB204610BD03480468F1E7002063
:1040300084F850000124F3E7B40000202DE9F0419A
:104040001E46154688460746FFF738FB1C4C20687D
:1040500090F85000022814D02068C16CB943C164A4
:104060002168012081F850005EB101213046FEF741
:104070004FFD14494FF080500860BFF34F8FBFF3DE
:104080006F8FFFF729FBFFF719FB15B12068C06C94
:104090002860206890F85000022801D0002505E033
:1040A0002068C16C21EA0801C16401252168002053
:1040B00081F85000FFF710FB2846BDE8F0810000B2
:1040C000B400002004ED00E070B504004FF00000E3
:1040D0002CD0A16C491EA164636CE26A9A4225D07F
:1040E000002923D1201DFFF7A3FA114A114901230A
:1040F00050B9E06A00EB800552F8255025B90D69EA
:1041000003FA00F085430D61606CE062C0F10500C8
:10411000A061E06A0D6983402B430B6100EB8000D6
:1041200002EB8000211DFFF7BCFA012070BD0000EA
:104130003C010020B400002070B504004FF00000E6
:1041400039D0204DE16A2A68D26A914234D2A069FE
:10415000002804DB2868C06AC0F10500A061E06A9D
:10416000194E00EB8000616906EB800081421ED190
:10417000201DFFF75DFA012150B9E06A00EB8002D3
:1041800056F8222022B92A6901FA00F082432A61F6
:104190002868C06AE0622A6981401143296100EB06
:1041A000800006EB8000211DFFF77BFA02E0286803
:1041B000C06AE062012070BD616C2A68D26A9142D7
:1041C000F8D370BDB40000203C0100202DE9F0417F
:1041D000C068C46804F118000746FFF729FA124DB9
:1041E000286B012660B139461048FFF75AFAE06A99
:1041F0002968C96A884214D90120EE61BDE8F081BE
:10420000201DFFF715FAE06A2A6906FA00F111434A
:104210002961064900EB8000643901EB8000211D13
:10422000E3E70020EAE70000B4000020A00100203E
:104230002DE9F04700242746FFF740FA254D286B6B
:10424000401E2863286BE8BBA86823490126C8B331
:10425000A1F164098846D8F80010E9B1D8F80C003B
:10426000C46804F11800FFF7E3F9201DFFF7E0F937
:10427000E06A2A6906FA00F11143296100EB800126
:1042800009EB8100211DFFF70CFAE06A2968C96A71
:104290008842E0D3EE61DEE70CB1FEF717FEAC69B1
:1042A0003CB1FFF759FE00B1EE61641EF9D1002068
:1042B000A861E86930B10949012738070860BFF3F0
:1042C0004F8F00E001E0BFF36F8FFFF705FA38462C
:1042D000BDE8F087B4000020A001002004ED00E05C
:1042E0000040404040404040404041414141414009
:1042F00040404040404040404040404040404040BE
:10430000400502020202020202020202020202024C
:104310000220202020202020202020020202020251
:1043200002029090909090901010101010101010A9
:1043300010101010101010101010101002020202B5
:1043400002028888888888880808080808080808F9
:1043500008080808080808080808080802020202F5
:1043600040000000E14200088843000800000020EF
:1043700004010000D82200088C4400080401002039
:10438000DC7C0100E82200080000000000000000C2
:10439000000000000000000000000000000000001D
:1043A000000000000000000000000000000000000D
:1043B00000000000000000000000000000000000FD
:1043C00000000000000000000000000000000000ED
:1043D00000000000000000000000000000000000DD
:1043E00000000000000000000000000000000000CD
:1043F00000000000000000000000000000000000BD
:1044000000000000000000000000000000000000AC
:10441000000000000000000000000000000000009C
:10442000000000000000000000000000000000008C
:10443000010203040102030406070809000000004A
:10444000000000000000000000000000000000006C
:10445000000000000000000000000000000000005C
:10446000000000000000000000000000000000004C
:104470000000000000000000AAAAAAAA0000000094
:0C44800000000000000000000000000030
:04000005080001D915
:00000001FF
